S01100007468697264537465702E737265635C
S113000012C02CC02BC02AC029C028C027C026C0BB
S113001025C024C023C022C021C020C01FC01EC0D0
S11300201DC01CC01BC011241FBECFE5D4E0DEBF21
S1130030CDBF10E0A0E6B0E0ECECF1E002C005902A
S11300400D92A439B107D9F710E0A4E9B0E001C0DA
S11300501D92A439B107E1F702D0B6C0D1CF6F9297
S11300607F928F929F92AF92BF92CF92DF92EF9244
S1130070FF920F931F93DF93CF9300D0CDB7DEB7DA
S113008010BC8CE089B988E18AB982E28BB986E038
S113009080BD82E080B980B900E010E05E01089480
S11300A0A11CB11C93E0892E912C8C0E9D1E84EA18
S11300B0E82EBEE27B2EA4E86A2EF4ECCF2EF9E003
S11300C0DF2EF02EE6BE06B607FEFDCF81B1887F97
S11300D0883071F0803161F05D9BFECF7CB8C60141
S11300E00197F1F70F5F1F4F0038110551F7FFCF4C
S11300F0C801880F991F83B966BE06B607FEFDCFF7
S113010081B1887F803411F0883131F786E6E5E7E4
S1130110F0E05D9BFECF8CB9818131968823C9F7CD
S1130120C801B50140E150E00CD0F50180815D9B30
S1130130FECF8CB93196E815F905C1F7F09292001B
S1130140CECFFB019F01E8944230BCF04532ACF4C1
S11301504A3029F497FB1EF4909581959F4F642FA4
S113016077271ED0805D8A330CF0895D8193CB01A3
S11301700097A9F716F45DE251931082C90100C0FB
S1130180DC01FC01672F71917723E1F7329704C0FA
S11301907C916D9370836291AE17BF07C8F3089585
S11301A0AA1BBB1B51E107C0AA1FBB1FA617B70799
S11301B010F0A61BB70B881F991F5A95A9F78095B5
S10F01C09095BC01CD010895F894FFCF88
S11301CC73656E7420646174612C204E4F542061ED
S11301DC636B200A00666F756E642061206465761B
S11301EC6963652061743A2000696E6974204D500E
S10701FC550068003E
S9030000FC
