:1000000012C024C023C022C021C020C01FC01EC0F7
:100010001DC01CC01BC01AC019C018C017C016C014
:1000200015C014C013C011241FBECFE5D4E0DEBF3D
:10003000CDBF10E0A0E6B0E0EEE8F1E002C0059030
:100040000D92A236B107D9F730D09FC0D9CF83E641
:1000500087B983E886B90895E0E4F0E010828CE087
:1000600089B982E08BB988E18AB986E880830895EE
:10007000982FEBE2F0E0808185FFFDCF9CB90895D9
:10008000E6E2F0E0808180648083808184FFFDCFA0
:1000900084B125B130E0220F331F220F331F90E0CF
:1000A000282B392B822F932F0895CF92DF92EF9236
:1000B000FF920F931F93DF93CF9300D000D0CDB763
:1000C000DEB7C5DFC9DF6E010894C11CD11C0F2E3D
:1000D000F5E0EF2EFF24F02DEC0EFD1ED1DF909306
:1000E000610080936000B6014AE050E00BD08601C9
:1000F000F80181918F01BCDF0E151F05C9F780E261
:10010000B7DFECCFFB019F01E8944230BCF04532F1
:10011000ACF44A3029F497FB1EF4909581959F4FDB
:10012000642F77271ED0805D8A330CF0895D819320
:10013000CB010097A9F716F45DE251931082C90133
:1001400000C0DC01FC01672F71917723E1F7329742
:1001500004C07C916D9370836291AE17BF07C8F3A2
:100160000895AA1BBB1B51E107C0AA1FBB1FA617FE
:10017000B70710F0A61BB70B881F991F5A95A9F750
:0E01800080959095BC01CD010895F894FFCFB5
:02018E00E80384
:00000001FF
