:1000000012C02CC02BC02AC029C028C027C026C0BF
:1000100025C0B5C323C022C021C020C01FC01EC040
:100020001DC01CC01BC011241FBECFE5D4E0DEBF25
:10003000CDBF10E0A0E6B0E0ECE0FEE002C005902D
:100040000D92AE39B107D9F710E0AEE9B0E001C0CA
:100050001D92AB3AB107E1F715D3D6C6D1CFE2E393
:10006000F0E08081806F8083808184608083A1E361
:10007000B0E08C918F708C93A0E3B0E02C918081E4
:100080008B7F80838081846080838C9190819B7F33
:10009000908382958F70207F822B0895E2E3F0E0B9
:1000A00020812F70982F907F922B90839081946065
:1000B000908390819B7F90838295807F822B808329
:1000C00080818460808380818B7F80830895EF921C
:1000D000FF920F931F93DF93CF930F92CDB7DEB7AD
:1000E00002E310E07E010894E11CF11CF80180811C
:1000F0008E7F8083808182608083B1DF8983F70176
:10010000808188239CF3E2E3F0E080818D7F80830F
:100110008FEF81BB0F90CF91DF911F910F91FF90D7
:10012000EF9008950F931F93E1E3F0E08FEF80834A
:10013000808302E310E0F80180818E7F80838081DC
:100140008D7F808380818B7F8083808184608083AA
:1001500080818062808380818B7F8083B8DF88E2AA
:100160009DDFB5DFF80180818E7F80838CE096DF94
:10017000AEDFF80180818E7F808386E08FDFA7DF8E
:100180001F910F910895E2E3F0E090819E7F9083AC
:10019000615890E00197002496958795079496956D
:1001A00087950794982F802D860F78DF90DF08952C
:1001B000E2E3F0E080818E7F808381E06FDF87DF84
:1001C0000895E2E3F0E090819160908367DF7FDF44
:1001D00008951F93CF93DF93EC018881882349F022
:1001E00010E0EFDF1F5FFE01E10FF11D808188232A
:1001F000C1F7DF91CF911F91089511B880E280B9C6
:1002000084E886BF0895982F84EA86BFE6E5F0E08B
:1002100080818823ECF781B1887F883011F081B12B
:10022000089580ED83B984E886BFE6E5F0E080813B
:100230008823ECF781B1887F883111F081B108956E
:1002400093B984E886BFE6E5F0E080818823ECF787
:1002500081B1887F883211F081B1089584E986BF29
:1002600080E008950F931F93CF93DF93982F84EA34
:1002700086BFE6E5F0E080818823ECF781B1887FD6
:10028000883011F081B140C080ED83B984E886BF29
:10029000E6E5F0E080818823ECF781B1887F883142
:1002A00011F081B131C093B984E886BFE6E5F0E092
:1002B00080818823ECF781B1887F883219F4442348
:1002C00019F41FC081B120C0262F372FF90123E276
:1002D00030E0A6E5B0E094E801E210E08081E901B9
:1002E00088839C938C918823ECF7E8018881887F30
:1002F000883211F081B108C031968E2F861B841789
:1003000068F384E986BF80E0DF91CF911F910F9160
:100310000895FF920F931F93CF93DF938C01F62ED6
:1003200084EA86BFE6E5F0E0A1E2B0E080818823C0
:10033000ECF78C91887F8830C9F72EC080818823A4
:10034000ECF78C91887F8034C9F78F2D90E0AC0159
:1003500041505040141615068CF420E0A6E5B0E09C
:1003600034ECC1E2D0E063E270E03C938C918823EE
:10037000ECF78881887F8035C9F717C084E886BF8D
:10038000E6E5F0E0A1E2B0E080818823ECF78C9113
:10039000887F8835C9F716C081ED83B984E886BFA8
:1003A000E6E5F0E0A1E2B0E0C9CFFB018081F80111
:1003B000E20FF11D80832F5F822F90E08417950755
:1003C000A4F2DCCF83B1F801EF0DF11D31978083EA
:1003D00084E986BF80E0DF91CF911F910F91FF905C
:1003E0000895282F30E03595279535952795359533
:1003F000279535952795A901440F551F220F331FC7
:10040000220F331F220F331F420F531F8F70840F91
:100410000895282F6AE026D2382F3295307F822F18
:1004200021D2832F890F0895EF92FF920F931F938C
:100430000EE910E0F80181918F018F77D2DF809370
:100440009400F8018081CDDF8093950080919B001E
:10045000882339F08091A0008F71C3DF80939600CC
:1004600006C08091A0008F73BCDF809396000F2E92
:10047000F2EAEF2EF0E0FF2EF02DF70181918F01CF
:10048000B0DF80939800F8018081ABDF8093990002
:10049000F7018281A6DF80939A008ADE80E690E0F1
:1004A00098DE8091960000D000D000D0EDB7FEB766
:1004B000319606EA10E0118300830F2EF7E6EF2E47
:1004C000F0E0FF2EF02DF382E28284831582D6D1F4
:1004D0008DB79EB706960FB6F8949EBF0FBE8DBF20
:1004E00081E067E050DEC80174DE81E069E04BDE48
:1004F0008DE267DE8091950000D000D000D0EDB78E
:10050000FEB7319611830083F382E28284831582E1
:10051000B5D1EDB7FEB736960FB6F894FEBF0FBE55
:10052000EDBF81E06AE02FDEC80153DE81E06CE0C0
:100530002ADE8DE246DE8091940000D000D000D00B
:10054000EDB7FEB7319611830083F382E282848394
:10055000158294D18DB79EB706960FB6F8949EBFBC
:100560000FBE8DBF81E06DE00EDEC80132DE8091EE
:100570009B00882361F081E060E105DE8091A000AE
:1005800085FF03C080E51DDE02C081E41ADE82E043
:1005900061E0F9DD8AE690E01CDE20919A0000D04F
:1005A00000D000D0EDB7FEB7319686EA90E0918397
:1005B000808387E690E093838283248315825ED1D3
:1005C000EDB7FEB736960FB6F894FEBF0FBEEDBF7F
:1005D00082E067E0D8DD80919A008A3010F480E3F1
:1005E000F0DD06EA10E0C801F4DD82E069E0CBDD71
:1005F0008DE2E7DD8091990000D000D000D0EDB70A
:10060000FEB73196118300830F2EF7E6EF2EF0E050
:10061000FF2EF02DF382E282848315822FD18DB7D5
:100620009EB706960FB6F8949EBF0FBE8DBF82E0B0
:100630006AE0A9DDC801CDDD82E06CE0A4DD8DE2D9
:10064000C0DD8091980000D000D000D0EDB7FEB79B
:10065000319611830083F382E282848315820ED166
:10066000EDB7FEB736960FB6F894FEBF0FBEEDBFDE
:1006700082E06DE088DDC801ACDD1F910F91FF9035
:10068000EF900895EF92FF920F931F934BDD90DD53
:1006900081E061E078DD81E790E09BDD82E061E070
:1006A00072DD82E890E095DD20E137E249E150E03B
:1006B000CA010197F1F721503040D1F785E083BF9F
:1006C00081E089BF789480919400A3DE0EE910E068
:1006D000F80181938F01809195009BDEF801808362
:1006E00080919B00882399F08091960092DE209162
:1006F0009B0090919C002295220F220F207C9295C6
:10070000990F907E922B982B9093A00005C080911A
:1007100096007FDE8093A000809197007ADE0F2EF6
:10072000F1EAEF2EF0E0FF2EF02DF70181938F011B
:10073000809198006EDEF80180838091990069DED7
:10074000F701828380919A0064DEF701838355DD8F
:100750008DEF9FEFE80EF91E80E0B70147E082DDE4
:100760000AEF10E0C8010197F1F780E04CDDC80105
:100770000197F1F7C70167E0CCDD56DEFFCF1F928E
:100780000F920FB60F9211240F931F932F933F9345
:100790004F935F936F937F938F939F93AF93BF9389
:1007A000EF93FF938091A5008F5F8093A5008A301F
:1007B00008F445C080E027DD8AEF90E00197F1F76B
:1007C0000EE910E0C80167E0A4DDF8010081802F88
:1007D00008DE90919400891781F1802F8F7701DED8
:1007E000809394002091940000D000D000D0EDB709
:1007F000FEB7319606EA10E01183008387E690E0A9
:10080000938382832483158239D08DB79EB7069651
:100810000FB6F8949EBF0FBE8DBF81E06DE0B3DCD4
:1008200081E990E0D6DC81E06DE0ADDCC801D1DC8F
:1008300080919400882309F4F7DD1092A500FF91C0
:10084000EF91BF91AF919F918F917F916F915F9148
:100850004F913F912F911F910F910F900FBE0F90CD
:100860001F901895991B79E004C0991F961708F0FE
:10087000961B881F7A95C9F780950895AEE0B0E081
:10088000E3E4F4E098C20D891E8986E08C831A8324
:1008900009838FEF9FE79E838D839E01275E3F4FE5
:1008A000CE0101966F89788DA90109D02F813885F5
:1008B000020F131FF80110822E96E4E098C2ABE0FD
:1008C000B0E0E4E6F4E069C23C012B015A01FC010E
:1008D00017821682838181FD03C06FEF7FEFB9C15C
:1008E0009AE0892E1E010894211C311CF3012381FA
:1008F000F20123FD859123FF81912F01882309F4C3
:10090000A5C1853239F423FD859123FF81912F0103
:10091000853221F490E0B301B6D1E8CF982FFF24BF
:10092000EE249924FFE1FF15D0F09B3269F09C3250
:1009300028F4903259F0933291F40EC09D3249F070
:10094000903369F441E024C052E0F52A84E0F82AAB
:1009500028C098E0F92A25C0E0E1FE2A22C0F7FC71
:1009600029C0892F80538A3070F4F6FE05C0989C08
:10097000902C1124980E15C0E89CE02C1124E80E50
:10098000F0E2FF2A0EC09E3229F4F6FC5FC140E47B
:10099000F42A07C09C3619F450E8F52A02C09836AC
:1009A00049F4F20123FD959123FF91912F019923A1
:1009B00009F0B8CF892F8554833018F080528330E6
:1009C00038F444E050E0A40EB51E5FE359830FC035
:1009D000933631F0933779F0933509F052C01FC048
:1009E000F5018081898342E050E0A40EB51E6101CB
:1009F00001E010E011C0F501C080D180F6FC03C019
:100A00006FEF7FEF02C0692D70E042E050E0A40E6E
:100A1000B51EC6012DD18C015FE7F52213C0F5018B
:100A2000C080D180F6FC03C06FEF7FEF02C0692D5C
:100A300070E042E050E0A40EB51EC6010ED18C015C
:100A400050E8F52AF3FE06C018C080E290E0B3013A
:100A50001AD1EA948E2D90E008171907B0F30DC053
:100A6000F601F7FC8591F7FE81916F0190E0B301EB
:100A70000AD1E110EA94015010400115110581F7E7
:100A8000E2C0943611F0993661F5F7FE08C0F50121
:100A9000208131814281538184E090E00AC0F501D8
:100AA000808191819C01442737FD4095542F82E03D
:100AB00090E0A80EB91E9FE6F92257FF09C0509595
:100AC0004095309521953F4F4F4F5F4FE0E8FE2A0C
:100AD000CA01B901A1012AE030E001D1D82ED21813
:100AE0003FC0953729F41F2D1F7E2AE030E01DC03E
:100AF0001F2D197F9F3661F0903720F4983509F04B
:100B0000A5C00FC0903739F0983709F09FC004C0D6
:100B100028E030E00AC0106114FD146020E130E0EC
:100B200004C014FD166020E132E017FF08C0F50193
:100B3000608171818281938144E050E008C0F501B9
:100B400080819181BC0180E090E042E050E0A40E01
:100B5000B51EA101C4D0D82ED2188FE7F82EF122ED
:100B6000F6FE0BC05EEFF522D91438F4F4FE07C090
:100B7000F2FC05C08FEEF82202C01D2D01C0192D18
:100B8000F4FE0DC0FE01ED0DF11D8081803319F4DE
:100B900099EEF92208C01F5FF2FE05C003C08F2D39
:100BA000867809F01F5F0F2DF3FC13C0F0FE0EC016
:100BB0001E1510F09D2C0AC09D2C9E0C911A1E2D06
:100BC00005C080E290E0B3015ED01F5F1E15C8F340
:100BD00004C01E1510F4E11A01C0EE2404FF0EC07B
:100BE00080E390E0B3014FD002FF1BC001FD03C0C2
:100BF00088E790E00EC088E590E00BC0802F8678F3
:100C000081F001FF02C08BE201C080E2F7FC8DE2BF
:100C100090E0B30138D005C080E390E0B30133D059
:100C20009A94D914C8F3DA94F101ED0DF11D808185
:100C300090E0B30128D0DD20B1F705C080E290E05C
:100C4000B30121D0EA94EE20C9F750CEF3016681BA
:100C50007781CB012B96E2E1BCC0FC01059061508D
:100C600070400110D8F7809590958E0F9F1F0895C2
:100C7000FC016150704001900110D8F7809590956B
:100C80008E0F9F1F08950F931F93CF93DF938C01B7
:100C9000EB018B8181FF1BC082FF0DC02E813F8144
:100CA0008C819D812817390764F4E881F9810193CB
:100CB000F983E88306C0E885F985802F0995892B9B
:100CC00031F48E819F8101969F838E8302C00FEF46
:100CD0001FEFC801DF91CF911F910F910895FA0185
:100CE000AA27283051F1203181F1E8946F936E7F6B
:100CF0006E5F7F4F8F4F9F4FAF4FB1E03ED0B4E05C
:100D00003CD0670F781F891F9A1FA11D680F791F9C
:100D10008A1F911DA11D6A0F711D811D911DA11DAD
:100D200020D009F468943F912AE0269F11243019BD
:100D3000305D3193DEF6CF010895462F4770405D58
:100D40004193B3E00FD0C9F7F6CF462F4F70405D07
:100D50004A3318F0495D31FD4052419302D0A9F762
:100D6000EACFB4E0A6959795879577956795BA955C
:100D7000C9F700976105710508959B01AC010A2E22
:100D800006945795479537952795BA95C9F7620FF9
:100D9000731F841F951FA01D08952F923F924F929D
:100DA0005F926F927F928F929F92AF92BF92CF92FB
:100DB000DF92EF92FF920F931F93CF93DF93CDB704
:100DC000DEB7CA1BDB0B0FB6F894DEBF0FBECDBF7C
:100DD00009942A88398848885F846E847D848C844D
:100DE0009B84AA84B984C884DF80EE80FD800C8156
:100DF0001B81AA81B981CE0FD11D0FB6F894DEBF39
:0C0E00000FBECDBFED010895F894FFCFA8
:100E0C0054696D653A2000256900446174653A2087
:100E1C000048656C6C6F204156522D445331333071
:100E2C0037007777772E686F636176722E636F6DFC
:0E0E3C0000202000373B0B011F0C09010100B4
:00000001FF
