:100000000C9434000C943E000C943E000C943E0082
:100010000C943E000C943E000C943E000C943E0068
:100020000C943E000C943E000C943E000C943E0058
:100030000C943E000C943E000C943E000C943E0048
:100040000C943E000C943E000C943E000C943E0038
:100050000C943E000C943E000C943E000C943E0028
:100060000C943E000C943E0011241FBECFEFD8E04C
:10007000DEBFCDBF0E9479000C9488000C94000074
:10008000ECE7F0E09081907F90839081892B8083D2
:10009000EAE7F0E0808180648083808186FDFDCF87
:1000A00080917800909179000895282F8823F9F0A5
:1000B00040E050E080E07DEC279F912D1124969543
:1000C00096959695692F660F362F330F330F360F9F
:1000D000231B30E0042E02C0220F331F0A94E2F7E4
:1000E000820F292F4C5F5F4F9111E6CF089580E07A
:1000F0000895EAE7F0E080818068808384B18FEF23
:1001000084B980E00E9440000E94550085B9F9CF73
:04011000F894FFCF91
:00000001FF
