S01200006C636441746D656761382E7372656358
S113000012C024C023C022C021C020C01FC01EC0F3
S11300101DC01CC01BC01AC019C018C017C016C010
S113002015C014C013C011241FBECFE5D4E0DEBF39
S1130030CDBF10E0A0E6B0E0E6E1F2E002C005903A
S11300400D92A236B107D9F77ED0E3C0D9CFE8E349
S1130050F0E020812F70982F907F922B90839081D5
S11300609460908390819B7F90838295807F822B84
S1130070808380818460808380818B7F80830895E6
S11300808AEF90E00197F1F708950F931F93E7E348
S1130090F0E08FEF8083808308E310E0F801808133
S11300A08E7F808380818D7F808380818B7F80831E
S11300B080818460808380818062808380818B7F63
S11300C08083DEDF88E2C3DFDBDFF80180818E7F9F
S11300D080838EE0BCDFD4DFF80180818E7F808353
S11300E086E0B5DFCDDF1F910F910895E8E3F0E0DE
S11300F080818E7F808381E0AADFC2DF0895E8E3F8
S1130100F0E0908191609083A2DFBADF08950F93AD
S11301101F93CF93DF93062F662381F0182F282F88
S1130120392FE9018881882311F0E9DF02C080E2D8
S1130130E6DF21969E01211B2017A0F3DF91CF91CA
S11301401F910F9108950F931F93DF93CF93CDB712
S1130150DEB727970FB6F894DEBF0FBECDBF95DF8D
S1130160C5DF80E2CCDF8AE3CADF80E690E061E0AD
S1130170CEDF8AE090E08E010F5F1F4FB8014AE0A6
S113018050E004D0C8016AE0C2DFFFCFFB019F0149
S1130190E8944230BCF04532ACF44A3029F497FB81
S11301A01EF4909581959F4F642F77271ED0805D14
S11301B08A330CF0895D8193CB010097A9F716F47B
S11301C05DE251931082C90100C0DC01FC01672F7C
S11301D071917723E1F7329704C07C916D9370831A
S11301E06291AE17BF07C8F30895AA1BBB1B51E168
S11301F007C0AA1FBB1FA617B70710F0A61BB70B93
S1130200881F991F5A95A9F780959095BC01CD0137
S10902100895F894FFCFED
S10502160000E2
S9030000FC
