S0150000693263456173794D61737465722E7372656313
S113000012C021C020C01FC01EC01DC01CC01BC008
S11300101AC019C018C017C016C015C014C013C028
S113002012C012C010C011241FBECFE5D4E0DEBF41
S1130030CDBF10E0A0E6B0E001C01D92A236B1072A
S1130040E1F740D062C0DCCF1F920F920FB60F923F
S113005011248F93EF93FF9381B18C7F8035C1F08E
S1130060813518F5883019F08034F9F40BC081E03B
S11300708093610083E083B9E6E5F0E080818F7DC1
S1130080808313C0E6E5F0E080818F7C80830DC01F
S11300901092610083B180936000E6E5F0E0808116
S11300A08061808380818F7D8083E6E5F0E08081BC
S11300B080688083FF91EF918F910F900FBE0F9016
S11300C01F901895CF93DF937894E6E5F0E0808154
S11300D0856480838FE387BB83E084BB30916100B8
S11300E020916000922F9295969596959370C6E50F
S11300F0D0E0A8E3B0E0E5E3F0E0332319F488812D
S1110100806288832C939083F8CFF894FFCF0D
S9030000FC
