S00F0000693263456173792E7372656385
S113000012C021C020C01FC01EC01DC01CC01BC008
S11300101AC019C018C017C016C015C014C013C028
S113002012C012C010C011241FBECFE5D4E0DEBF41
S1130030CDBF10E0A0E6B0E001C01D92A136B1072B
S1130040E1F72CD051C0DCCF1F920F920FB60F9264
S113005011248F93EF93FF9381B18C7F883A19F029
S1130060883C79F409C08091600083B9E6E5F0E04A
S113007080818F7A808305C0E6E5F0E0808180642A
S11300808083E6E5F0E0808180688083FF91EF91D2
S11300908F910F900FBE0F901F901895CF93DF9301
S11300A0789482E082B9E6E5F0E08081856480831B
S11300B0E6E2F0E0808180688083E7E2F0E080811E
S11300C0806C8083808183608083E6E2F0E0C4E218
S11300D0D0E0A5E2B0E0808180648083808186FDE9
S10F00E0FDCF88818C91F7CFF894FFCFFE
S9030000FC
