S00C0000756172742E737265635C
S11300000C9434000C943E000C943E000C943E007E
S11300100C943E000C943E000C943E000C943E0064
S11300200C943E000C943E000C943E000C943E0054
S11300300C943E000C943E000C943E000C943E0044
S11300400C943E000C943E000C943E000C943E0034
S11300500C943E000C943E000C943E000C943E0024
S11300600C943E000C943E0011241FBECFEFD8E048
S1130070DEBFCDBF0E9458000C946E000C940000AB
S11300801092C5008CE08093C40088E18093C10085
S113009082E28093C00086E08093C2000895982F86
S11300A0E0ECF0E0808185FFFDCF9093C6000895D9
S11300B00F931F93CF93DF930E94400010E2C8EA8E
S11300C0D1E600E207C0812F0E944F00CE010197C4
S11300D0F1F71F5F1123BCF7102FFCCFF894FFCF6B
S9030000FC
