S00B00004C43442E7372656346
S11300000C9434000C9449000C9449000C9449005D
S11300100C9449000C9449000C9449000C94490038
S11300200C9449000C9449000C9449000C94490028
S11300300C9449000C9449000C9449000C94490018
S11300400C9449000C9449000C9449000C94490008
S11300500C9449000C9449000C9449000C944900F8
S11300600C9449000C94490011241FBECFEFD8E032
S1130070DEBFCDBF11E0A0E0B1E0E6E4F1E002C0F4
S113008005900D92A230B107D9F70E9497000C9405
S1130090A1000C94000085B95C9A5C9808958FEFD8
S11300A05C985A985B9A84B985B95C9A14B81F997C
S11300B0F7CF5C985B988FEF84B908958FEF84B97C
S11300C085B95A985B985C9888E30E944B000E941B
S11300D04F005A988EE00E944B000E944F005A989D
S11300E086E00E944B000C944F005A9881E00E94D5
S11300F04B000C944F005A9A0E944B000C944F00F2
S11301000F931F93CF93DF93EC018C01060F111D06
S1130110C017D10739F08991811101C080E20E9492
S11301207B00F6CFDF91CF911F910F9108950E942C
S11301305E000E94750062E080E091E00E94800011
S1090140FFCFF894FFCF8D
S1050146310082
S9030000FC
