S01700004763634170706C69636174696F6E362E7372656356
S11300000C9434000C943E000C943E000C943E007E
S11300100C943E000C943E000C943E000C943E0064
S11300200C943E000C943E000C943E000C943E0054
S11300300C943E000C943E000C943E000C943E0044
S11300400C943E000C943E000C943E000C943E0034
S11300500C943E000C943E000C943E000C943E0024
S11300600C943E000C943E0011241FBECFEFD8E048
S1130070DEBFCDBF0E9440000C945A000C940000D7
S11300808FEF84B9E5E2F0E0AFEF60E177E249E1B8
S113009050E0A0839B01CA010197F1F72150304041
S11300A0D1F710829B01CA010197F1F7215030402A
S10B00B0D1F7EFCFF894FFCF64
S9030000FC
