S00F0000746578744C43442E737265637D
S11300000C9434000C9449000C9449000C9449005D
S11300100C9449000C9449000C9449000C94490038
S11300200C9449000C9449000C9449000C94490028
S11300300C9449000C9449000C9449000C94490018
S11300400C9449000C9449000C9449000C94490008
S11300500C9449000C9449000C9449000C944900F8
S11300600C9449000C94490011241FBECFEFD8E032
S1130070DEBFCDBF11E0A0E0B1E0E6EDF1E002C0EB
S113008005900D92A231B107D9F70E94CD000C94CE
S1130090E9000C94000025B12F70982F907F922BCB
S11300A095B92A9A2A9830E1839FC0011124822BA2
S11300B085B92A9A2A9808958FEF84B984B9289823
S11300C029982A982A9A2D9A2A9889EF90E00197DC
S11300D0F1F700C0000088E20E944B0089EF90E035
S11300E00197F1F700C0000028988EE00E944B00B1
S11300F089EF90E00197F1F700C00000289886E0AE
S11301000E944B0089EF90E00197F1F700C00000D6
S11301100895289890E4899F600D1124862F815CAE
S11301200E944B0089EF90E00197F1F700C00000B6
S11301300895289881E00E944B0089EF90E0019790
S1130140F1F700C000000895289A0E944B0089EF3F
S113015090E00197F1F700C0000008950F931F93FA
S1130160CF93DF936623A1F0EC016150062F10E0DA
S11301700F5F1F4F080F191F8991882319F00E94E0
S1130180A40003C080E20E94A400C017D107A1F715
S1130190DF91CF911F910F9108950E945C000E94FE
S11301A0990080E20E94A40080E20E94A40084E4FA
S11301B00E94A4006AE080E091E00E94AE0061E049
S11301C082E00E94890060E187E091E00E94AE0035
S10901D0FFCFF894FFCFFD
S11301D66F6620746865006675636B207520616CB4
S10501E66C00A7
S9030000FC
