:1000000012C019C018C017C016C015C014C013C044
:1000100012C038C010C00FC00EC00DC00CC00BC045
:100020000AC009C008C011241FBECFE5D4E0DEBF5E
:10003000CDBF11D03FC0E4CF806C87B9E6E2F0E0DD
:10004000808180648083808184FFFDCF24B135B1BD
:10005000822F932F0895CF93DF938FEF87BB18BA2A
:1000600084E083BF12BE81E089BF789485E886B9B9
:1000700080EC87B98FEF87BBC2E5D0E080E0DCDFA2
:100080008883FCCF1F920F920FB60F9211248F938B
:100090009F93EF93FF93E8E3F0E0808191E089275D
:1000A0008083FF91EF919F918F910F900FBE0F90E2
:0800B0001F901895F894FFCF92
:00000001FF
