S01200007365636F6E64537465702E73726563FA
S11300000C9484010C942E070C94C5060C94A10145
S11300100C94A1010C94ED060C94A1010C94A10183
S11300200C94A1010C94A1010C94A1010C94A101C4
S11300300C94A1010C94A1010C94A1010C94A101B4
S11300400C94A1010C94A1010C94A1010C94A101A4
S11300500C94A1010C94A1010C94A1010C94A10194
S11300600C94A1010C94A101000000000000000008
S1130070002F000000000700070000147F147F1405
S113008000242A7F2A12006264081323003649558B
S1130090225000000503000000001C224100000063
S11300A041221C000014083E08140008083E0808F9
S11300B0000000A060000008080808080000606054
S11300C00000002010080402003E5149453E000093
S11300D0427F4000004261514946002141454B3175
S11300E0001814127F10002745454539003C4A4941
S11300F049300001710905030036494949360006B3
S11301004949291E0000363600000000563600001A
S11301100008142241000014141414140000412295
S1130120140800020151090600324959513E007C6D
S11301301211127C007F49494936003E4141412257
S1130140007F4141221C007F49494941007F090940
S11301500901003E4149497A007F0808087F0000F0
S1130160417F4100002040413F01007F08142241AB
S1130170007F40404040007F020C027F007F040863
S1130180107F003E4141413E007F09090906003EBF
S11301904151215E007F09192946004649494931E8
S11301A00001017F0101003F4040403F001F20400B
S11301B0201F003F4038403F0063140814630007C9
S11301C00870080700615149454300007F41410020
S11301D000552A552A55000041417F0000040201C0
S11301E0020400404040404000000102040000209E
S11301F054545478007F48444438003844444420DC
S113020000384444487F00385454541800087E0988
S113021001020018A4A4A47C007F08040478000050
S1130220447D4000004080847D00007F102844000D
S11302300000417F4000007C04180478007C08041E
S1130240047800384444443800FC2424241800185A
S1130250242418FC007C0804040800485454542046
S113026000043F444020003C4040207C001C2040CF
S1130270201C003C4030403C004428102844001C12
S1130280A0A0A07C004464544C44000008774100C2
S11302900000006300000000417708000008040823
S11302A00804003A4040207A003D4040403D00218F
S11302B054545479007D1211127D00394444443958
S11302C0003D4242423D000205020000007E014919
S11302D05573007C1010081CBC5F9C60A461846290
S11302E0B6639664B0659F66B567FFFFAE2000B045
S11302F0C8001040813FA1A6A83FA4D300D5F0D9DF
S113030022DA12DB208D140011241FBECFEFD8E0B7
S1130310DEBFCDBF11E0A0E0B1E0EEE7F5E102C041
S113032005900D92A637B107D9F715E0A6E7B1E01D
S113033001C01D92AE38B107E1F70E94120A0C9475
S1130340BD0A0C9400001092B90080E28093B800BA
S113035084E08093BC000895982F84EA8093BC00C5
S113036020EA30E0ECEBF0E009C02150304031F4F9
S113037080918D05816080938D0508958081882307
S11303801CF02115310589F79093BB0084E8809314
S1130390BC0020EA30E0ECEBF0E009C02150304032
S11303A031F480918D05826080938D05089580815C
S11303B088231CF02115310589F7089584E9809379
S11303C0BC0008958093BB0084E88093BC0020EABD
S11303D030E0ECEBF0E009C02150304031F4809182
S11303E08D05846080938D050895808188231CF099
S11303F02115310589F7089584E88093BC0020EA2B
S113040030E0ECEBF0E00AC02150304039F4809148
S11304108D05806180938D0580E008958081882317
S11304201CF02115310581F78091BB0008951F93BD
S1130430182F80ED0E94AC01812F0E94E2010E94DE
S1130440DE0181ED0E94AC010E94FC01182F0E9484
S1130450DE01812F1F9108950E941702282F2F700B
S113046082958F709AE0899F802D1124820F0895C0
S11304700E941702382F3F7090E080779070959516
S113048087959595879595958795959587952AE070
S1130490289F202D1124822F830F089580937001AB
S11304A008958823D4F16034C0F54130D9F4E62F9F
S11304B0E695E695E695F0E0F695FE2FEE27F7959E
S11304C0E795E80FF11DE858FE4F262F277081E0CD
S11304D090E002C0880F991F2A95E2F72081282B0B
S11304E020830895E62FE695E695E695F0E0F695E7
S11304F0FE2FEE27F795E795E80FF11DE858FE4F1C
S1130500262F277081E090E002C0880F991F2A955A
S1130510E2F7809520818223808308955F926F9211
S11305207F928F929F92AF92BF92CF92DF92EF927F
S1130530FF920F931F93CF93DF93F82EE62EB42EE2
S1130540522EA02E88230CF450C044230CF44DC02A
S11305508FE3861708F449C0821708F446C0842F35
S113056090E06C01CF18D108DD2024F4D094C1941C
S1130570D108D394FB1420F066246A94762C03C02B
S1130580662477246394852D90E08E19910999232C
S11305901CF4909581959F4F00271127081B190B78
S11305A0E51420F088248A94982C03C08824992484
S11305B08394E801CC0DDD1D8F2D6E2D4A2D0E94F4
S11305C05102FB1411F4E51481F0CE01880F991F38
S11305D0081719071CF4C00FD11FF60C8C159D05C4
S11305E05CF7CC0DDD1DE80CE7CFDF91CF911F91B7
S11305F00F91FF90EF90DF90CF90BF90AF909F90BE
S11306008F907F906F905F900895CF92DF92EF92DA
S1130610FF920F931F93CF93DF93D82EE62EF42EE1
S1130620C02E481728F4FD2CD42E822F262FE82E16
S1130630822F90E0EC01CE19D109DD237CF010E08B
S1130640212F2E0D8D2D622F4F2D0C2D0E948E02E9
S11306501F5F812F90E0C817D90794F7DF91CF91DE
S11306601F910F91FF90EF90DF90CF9008952F92FC
S11306703F924F925F926F927F928F929F92AF922E
S1130680BF92CF92DF92EF92FF920F931F93CF937B
S1130690DF93782E662E142FC22EC42FD0E0CE0105
S11306A0870D911D803891050CF089C0CE01860F0D
S11306B0911D803491050CF082C0741608F47FC03B
S11306C0641708F47CC0642F660D872D422F0E94A6
S11306D05102662D611B872D4C2D0E945102812FE2
S11306E0870D662D4C2D0E945102872D811B662D8E
S11306F04C2D0E9451021C161D060CF060C081E0B6
S113070090E04C018C1A9D0ACE01880F991F222477
S11307103324281A390A442455244394AA24BB2494
S113072099203CF0219782E090E0280E391E820C3B
S1130730931C0894A11CB11CDA2CD70C1C2F160D89
S11307408D2D612F4C2D0E945102E72CEA188E2D1D
S1130750612F4C2D0E945102162D1C1B8D2D612FD3
S11307604C2D0E9451028E2D612F4C2D0E9451025E
S1130770EC2EE70C162D1A0D8E2D612F4C2D0E9498
S11307805102972D9C1B092F892F612F4C2D0E94FC
S11307905102162D1A198E2D612F4C2D0E945102D3
S11307A0802F612F4C2D0E945102AC16BD063CF4E3
S11307B082E090E0480E591E840C951CB1CFDF9165
S11307C0CF911F910F91FF90EF90DF90CF90BF904A
S11307D0AF909F908F907F906F905F904F903F90DD
S11307E02F900895DF92EF92FF920F931F93D82ECC
S11307F0E62EF42E022F10E08D2D6E2D412F202F8A
S11308000E9437031F5FF116B8F71F910F91FF90F5
S1130810EF90DF900895EF92FF920F931F93CF9381
S1130820DF937C018B0188E70E94AC0180E40E9485
S1130830E2010115110561F0C0E0D0E0F701EC0F11
S1130840FD1F80810E94E2012196C017D107B0F3F9
S11308500E94DE01DF91CF911F910F91FF90EF90E5
S11308600895FF920F931F93CF93DF93182FF92EC0
S1130870062F88E70E94AC0180E00E94E201002379
S113088051F0212F3F2DE90189910E94E2019E013F
S1130890211B2017C8F30E94DE01DF91CF911F9125
S11308A00F91FF900895DF93CF9300D0CDB7DEB7BB
S11308B091E899838A83CE01019662E00E94310413
S11308C00F900F90CF91DF9108951F93DF93CF93F3
S11308D00F92CDB7DEB7182F88E70E94AC01113014
S11308E019F08FEA898302C08EEA8983CE010196CA
S11308F061E00E9431040F90CF91DF911F91089520
S1130900DF93CF9300D000D00F92CDB7DEB7982FEE
S1130910863150F5683040F586E0989FC001112477
S1130920282FE6E7F1E081936083862F8055898341
S113093081E28A83822F8E5F8F708B8330E02E5FFB
S11309403F4F207F30703595279535952795359500
S1130950279535952795205F2C838FE78D83CE01CE
S1130960019665E00E9431040F900F900F900F9054
S11309700F90CF91DF9108951F93CF93DF93C8E732
S1130980D1E010E080E0612F0E948004CE0160E895
S113099070E00E940B041F5FC058DF4F183091F7BE
S11309A0DF91CF911F9108954F925F926F927F9242
S11309B08F929F92BF92CF92DF92EF92FF920F930A
S11309C01F93DF93CF93CDB7DEB72C970FB6F89470
S11309D0DEBF0FBECDBF893049F18A3020F48830A4
S11309E009F059C007C08A3009F442C08D3009F0BB
S11309F052C04BC00F2EF6E7EF2EF1E0FF2EF02D84
S1130A00F70181918F0190917001891B60810E948F
S1130A10800480E20E94D404F701808190917001E7
S1130A20891BF80160810E9480042EC160917601C7
S1130A308091700190E0AC01440F551F440F551F85
S1130A409A01260F311D88279927841B950B4596FB
S1130A502817390738F4862F840F609177010E9494
S1130A60800412C185E1609177010E9480040CC169
S1130A7060917701673008F007C180917001680FB9
S1130A80809176010E948004FFC080E0609177012C
S1130A900E948004F9C0B0907601F9E7FB1508F4D0
S1130AA0F3C0803208F4F0C0982F9052A8EDB2E061
S1130AB09D012F5F3F4FF9018491981708F430C0CE
S1130AC084918F3F09F4E0C0FD018491092F10E067
S1130AD090E080978017910789F4A9010AC0FD016D
S1130AE0E20FF31FE4918E2F90E080978017910717
S1130AF031F4FA0184918F3F91F4C6C060E06F5FD6
S1130B00862F90E09C01220F331FC9010196AD018D
S1130B10480F591FFA0184918F3F09F7B5C0982FE8
S1130B2080917001823009F090C06E010894C11C5C
S1130B30D11C86E0989FC00111240F2EF8E6EF2EF9
S1130B40F0E0FF2EF02DE80EF91E2601662477242E
S1130B5001E010E00F2EFDE08F2E9924F02D8C0E75
S1130B609D1EF20111821082F7018491A301B80144
S1130B70A82FB0E0CD01042E02C0959587950A9464
S1130B80E2F780FF1AC0CA01880F991F980102C0BA
S1130B90220F331F8A95E2F7C901F20120813181C6
S1130BA0822B932B9801062E02C0220F331F0A9426
S1130BB0E2F7822B932B918380834F5F5F4F6E5FAD
S1130BC07F4F48305105B1F622E030E0420E531E0B
S1130BD00894E11CF11C4814590409F0C2CF209177
S1130BE0770130E06B2D70E0C90101969695982F3E
S1130BF0882797958795860F971F48E751E08A01C4
S1130C00080F191F3695322F222737952795260F5F
S1130C10371FDA01A20FB31FF60190818181F80119
S1130C20808381839C9311969C93119722E030E0FA
S1130C30C20ED31E0E5F1F4F1296C414D50461F763
S1130C408B2D845F809376011FC086E0989FC0013E
S1130C501124FC01E859FF4F8091770190E09695AB
S1130C60982F8827979587958B0D911DDC01A8589F
S1130C70BE4F90E084918D939F5F31969630D1F76B
S1130C808B2D8A5F809376012C960FB6F894DEBF85
S1130C900FBECDBFCF91DF911F910F91FF90EF90C9
S1130CA0DF90CF90BF909F908F907F906F905F90D8
S1130CB04F900895CF93DF93EC018881882331F01E
S1130CC021960E94D40488818823D1F7DF91CF91A3
S1130CD0089580E060E00E94800408950F931F93BC
S1130CE0CF93DF93C8E7D1E010E000E8802FEC2F2A
S1130CF0FD2FDF011D928A95E9F780E0612F0E94A4
S1130D008004CE0160E870E00E940B041F5FC058AD
S1130D10DF4F183059F70E946906DF91CF911F9178
S1130D200F9108951F93DF93CF93CDB7DEB76C97E0
S1130D300FB6F894DEBF0FBECDBF182F0E94A301DB
S1130D4080E090E04CEE52E09E012F5F3F4FFA01AD
S1130D50E80FF91FE491D901A80FB91FEC9301968C
S1130D608B319105A1F71C8FCE0101966CE10E9495
S1130D7031040E946E066C960FB6F894DEBF0FBE67
S1130D80CDBFCF91DF911F9108951F920F920FB69F
S1130D900F9211242F933F938F939F9380918C05EF
S1130DA0813079F4809186059091870520917101B5
S1130DB030917201821B930B909387058093860573
S1130DC003C082E080938C059F918F913F912F9176
S1130DD00F900FBE0F901F9018951F920F920FB691
S1130DE00F9211248F9380918C05882319F481E04C
S1130DF080938C058F910F900FBE0F901F901895C4
S1130E00EAE2F0E080818F7E8083EBE2F0E0808193
S1130E1080618083E8E6F0E0808184608083EDE691
S1130E20F0E0808180618083A9E6B0E08C918360EA
S1130E308C93EDE3F0E08081816080838C918C6001
S1130E408C9380818260808380E380938A05789488
S1130E50089543E020E00E94F20308951F920F9248
S1130E600FB60F9211242F933F934F935F936F9379
S1130E707F938F939F93AF93BF93EF93FF9380914F
S1130E808C05813071F480918605909187052091BD
S1130E90710130917201820F931F909387058093A3
S1130EA0860580918C05823029F4809175018A50E1
S1130EB0809375016091750185E00E942907FF9177
S1130EC0EF91BF91AF919F918F917F916F915F91BE
S1130ED04F913F912F910F900FBE0F901F90189537
S1130EE043E021E00E94F2030895682F85E00E9408
S1130EF070070895842F622F43E021E00E94F203DB
S1130F000895EF92FF920F931F93182FF62EEE245D
S1130F106894E2F8E60E862F60E04E2D212F00E063
S1130F200E940503165F8F2D612F4E2D2CE30E9426
S1130F3005031F910F91FF90EF900895EF92FF9298
S1130F400F931F93182FF62EEE246894E2F8E60E02
S1130F50862F60E04E2D212F01E00E940503165FCD
S1130F608F2D612F4E2D2CE30E9405031F910F91AD
S1130F70FF90EF9008950F93782F842F952F992346
S1130F800CF401969C0135952795672F621B270F5A
S1130F9080E043E001E00E9405030F9108950F9360
S1130FA080E060E043E02FE300E00E9405030F913E
S1130FB008950F938FE360E040E42AE001E00E948B
S1130FC005038FE36FE040E429E10E9405038FE30A
S1130FD06EE140E428E20E9405038FE36DE240E401
S1130FE027E30E9405030F9108950F931F93DF9346
S1130FF0CF9300D00F92CDB7DEB7A0918605B09104
S11310008705AD33B1055CF0809171019091720157
S1131010909581959F4F9093720180937101AA30AE
S1131020B1055CF480917101909172019095819564
S11310309F4F909372018093710140917E0550916E
S11310407F05403851055CF08091820590918305BD
S1131050909581959F4F909383058093820560912D
S1131060800570918105683371055CF08091840579
S113107090918505909581959F4F909385058093D8
S113108084054A3051057CF5809182059091830551
S1131090909581959F4F909383058093820520912D
S11310A0730130917401822F932F99230CF40196CC
S11310B0FC01F595E7959D012B5F3F4FC9018E0F0C
S11310C09F1F6817790734F4C9018E1B9F0B86177D
S11310D097074CF08091880590918905019690932B
S11310E08905809388056A3071055CF480918405D4
S11310F090918505909581959F4F90938505809358
S113110084058091820590918305480F591F50935F
S11311107F0540937E0580918405909185059B0110
S1131120280F391F309381052093800583E090E0D8
S113113063E070E00E947A078091860590918705AC
S113114064E070E04AE050E00E94BB0783E06AE09C
S11311500E94800480918805909189058E010F5F1B
S11311601F4FB8014AE050E00E94780AC8010E946B
S11311705A060F900F900F90CF91DF911F910F910E
S1131180089582E00E944E0280E061E00E948004A3
S113119080E091E00E945A0681E00E944E020E9483
S11311A0BC04089582E00E944E0280E061E00E9447
S11311B080048CE091E00E945A0681E00E944E0275
S11311C083E066E00E94800480E291E00E945A0677
S11311D00E94BC0408950F931F93CF93DF930E9442
S11311E069060EE715E0C0E8D5E0F8018081688162
S11311F00E942907809186059091870564E070E03C
S11312004AE050E00E94CF070E94D9070E94F507E8
S113121080918805909189050B973CF00E94D20833
S1131220DF91CF911F910F9108950E94BC04DDCFEF
S113123084E680938B058EE180937501609175013E
S113124085E00E94290760918B058EE190E070E0B3
S11312500E9481070E94BC04809175018F5F809376
S1131260750180917501853020F0809175018D3371
S113127070F00E94D208089580917501893120F0A0
S1131280809175018432D0F20E94D2080895809131
S113129075010E94750760918B0570E06350704082
S11312A08EE190E00E949E070E94BC0480918B0511
S11312B0835080938B0580918B05853009F0BECFD8
S11312C0DBCF82E00E944E0280E061E00E94800455
S11312D080E391E00E945A0681E00E944E0283E07E
S11312E066E00E94800485E491E00E945A060E9410
S11312F0BC04089582E00E944E0280E061E00E94F6
S1131300800485E591E00E945A0681E00E944E0225
S113131083E066E00E94800485E491E00E945A061E
S11313200E94BC04089580E00E94380280937805EE
S113133082E00E942C0280937A0581E00E943802A8
S11313408093790584E00E942C0280937B0585E0DC
S11313500E942C0280937C0586E00E942C028093DC
S11313607D0508950F931F93DF93CF9300D0CDB7DE
S1131370DEB70E94930985E065E00E94800488E658
S113138091E00E945A0680917A058A3020F48AE816
S113139095E00E945A0680917A0590E08E010F5FD5
S11313A01F4FB8014AE050E00E94780AC8010E9429
S11313B05A068EE691E00E945A06809179058A3099
S11313C020F48AE895E00E945A068091790590E01D
S11313D08E010F5F1F4FB8014AE050E00E94780A67
S11313E0C8010E945A068EE691E00E945A06809136
S11313F0780590E0B8014AE050E00E94780A8091B4
S113140078058A3020F48AE895E00E945A06CE01D5
S113141001960E945A060F900F90CF91DF911F9171
S11314200F9108950F931F93CF93DF930E940007AA
S11314308FEA0E9492060E946E0680E00E94530486
S11314408AE090E0909381058093800590937F05D6
S113145080937E058BE090E09093870580938605CA
S113146083E090E0909383058093820590938505B3
S11314708093840500E21EE4C9E1D0E080918C05EC
S11314808823B9F40E94C1080E94B20988EE0E9420
S11314906504F4CF0E946E060E947A090E946E06CB
S11314A00E94EB0810928C05109289051092880511
S11314B011C080918C05813069F4ECCF0E946E06D6
S11314C00E9461090E946E060E94180910928C0500
S11314D0980105C080918C058230D1F7EFCFCE0101
S11314E00197F1F721503040D1F70E946E06C6CF24
S11314F0FB019F01E8944230C4F04532B4F44A3011
S113150029F497FB1EF4909581959F4F642F7727BC
S11315100E94A90A805D8A330CF0895D8193CB0116
S11315200097A1F716F45DE251931082C9010C945F
S1131530990ADC01FC01672F71917723E1F7329757
S113154004C07C916D9370836291AE17BF07C8F39A
S11315500895AA1BBB1B51E107C0AA1FBB1FA617F6
S1131560B70710F0A61BB70B881F991F5A95A9F748
S111157080959095BC01CD010895F894FFCFAD
S113157E20436C6F636B20312E30200020202047D7
S113158E616D6520200D0A2020204F7665722000A3
S113159E2A205072657373207265736574202A0055
S11315AE202020466C6170707920200D0A202020A6
S11315BE42697264002A20507265737320737461D9
S11315CE7274202A00202020506F6E6720200D0A8E
S11315DE20202047616D650054696D653A003A001C
S10915EE0103000A001EC7
S9030000FC
