:1000000012C048C018C017C016C015C014C013C015
:1000100012C011C010C00FC00EC00DC00CC00BC06C
:100020000AC009C008C011241FBECFE5D4E0DEBF5E
:10003000CDBF02D047C0E4CF8FEF87BB18BAE3E54E
:10004000F0E081E0808312BE89BF80E883BD8081BB
:1000500080628083808188648083789420E030E0AF
:10006000E3E4F0E048EA51E6AFEF60E070E006C09C
:100070002083CA010197F1F72F5F3F4F2F3F3105D2
:10008000BCF32A2F2083CA010197F1F72150D1F741
:100090009B01F4CF1F920F920FB60F9211248F93F2
:1000A0009F93EF93FF93E8E3F0E0808191E089274D
:1000B0008083FF91EF919F918F910F900FBE0F90D2
:0800C0001F901895F894FFCF82
:00000001FF
