:1000000012C024C023C022C021C020C01FC01EC0F7
:100010001DC01CC01BC01AC019C018C017C016C014
:1000200015C015C013C011241FBECFE5D4E0DEBF3C
:10003000CDBF10E0A0E6B0E0E8ECF0E002C0059033
:100040000D92A236B107D9F72DD03CC0D9CF1F925F
:100050000F920FB60F9211248F93EF93FF9381B1FC
:100060008C7F883A19F0883C81F40AC08BE783B909
:10007000E6E5F0E084E0808380818F7A808305C0AC
:10008000E6E5F0E0808180648083E6E5F0E0808151
:1000900080688083FF91EF918F910F900FBE0F903A
:1000A0001F9018957894E2E2F0E090819160809141
:1000B0006000880F892B8083E6E5F0E0808185640D
:0800C0008083FFCFF894FFCF0D
:0200C800010035
:00000001FF
