:100000000C9434000C944B000C9449000C9449005F
:100010000C9449000C9449000C9449000C9449003C
:100020000C9449000C9449000C9449000C9449002C
:100030000C9449000C9449000C9449000C9449001C
:100040000C9449000C9449000C9449000C9449000C
:100050000C9449000C9449000C9449000C944900FC
:100060000C9449000C94490011241FBECFEFD8E036
:10007000DEBFCDBF11E0A0E0B1E0E6EDF0E002C0F0
:1000800005900D92A030B107D9F70E945D000C9445
:1000900069000C9400001F920F920FB60F9211246A
:1000A0008F939F9395B180E2892785B99F918F9116
:1000B0000F900FBE0F901F901895259A2D9A549867
:1000C0005C9AE9E6F0E0808183608083E89A789426
:0600D000FFCFF894FFCF02
:00000001FF
